{
  "transactions": [
    {
      "hash": "0xb52534590c0035cbfcf220fe524d3c516e461312f7601d11613821c4dc09dc68",
      "transactionType": "CALL",
      "contractName": null,
      "contractAddress": "0x80a428aed33fec3867850c75ad8b6bb0ec1270ca",
      "function": "initiateSettlement(bytes32,bytes)",
      "arguments": [
        "0x00000000000000000000000056ca414d41cd3c1188a4939b0d56417da7bb6da2",
        "0xf795620a1f1a865403161dc49cf27d4d09355a8dcc32814b774867e9be604966"
      ],
      "transaction": {
        "from": "0x56ca414d41cd3c1188a4939b0d56417da7bb6da2",
        "to": "0x80a428aed33fec3867850c75ad8b6bb0ec1270ca",
        "gas": "0x3d453",
        "value": "0xbc8d76395c29",
        "input": "0x30c5b92600000000000000000000000056ca414d41cd3c1188a4939b0d56417da7bb6da200000000000000000000000000000000000000000000000000000000000000400000000000000000000000000000000000000000000000000000000000000020f795620a1f1a865403161dc49cf27d4d09355a8dcc32814b774867e9be604966",
        "nonce": "0x13",
        "chainId": "0x2105"
      },
      "additionalContracts": [],
      "isFixedGasLimit": false
    }
  ],
  "receipts": [
    {
      "status": "0x1",
      "cumulativeGasUsed": "0xfe4450",
      "logs": [
        {
          "address": "0xea87ae93fa0019a82a727bfd3ebd1cfca8f64f1d",
          "topics": [
            "0x769f711d20c679153d382254f59892613b58a97cc876b249134ac25c80f9c814",
            "0x00000000000000000000000080a428aed33fec3867850c75ad8b6bb0ec1270ca",
            "0x000000000000000000000000000000000000000000000000000000000000a4b1",
            "0x00000000000000000000000083efe03da48cf12a258c5bb210097e8b0ab2f61f"
          ],
          "data": "0x0000000000000000000000000000000000000000000000000000000000000020000000000000000000000000000000000000000000000000000000000000008e03000c000d0000210500000000000000000000000080a428aed33fec3867850c75ad8b6bb0ec1270ca0000a4b100000000000000000000000083efe03da48cf12a258c5bb210097e8b0ab2f61f0000000000000000000000000056ca414d41cd3c1188a4939b0d56417da7bb6da2f795620a1f1a865403161dc49cf27d4d09355a8dcc32814b774867e9be604966000000000000000000000000000000000000",
          "blockHash": "0x470ec094e5af3636b09d2dec9770e13e632777bdf26a9c900342738071345a27",
          "blockNumber": "0x13ab830",
          "transactionHash": "0xb52534590c0035cbfcf220fe524d3c516e461312f7601d11613821c4dc09dc68",
          "transactionIndex": "0x77",
          "logIndex": "0x186",
          "removed": false
        },
        {
          "address": "0xea87ae93fa0019a82a727bfd3ebd1cfca8f64f1d",
          "topics": [
            "0x788dbc1b7152732178210e7f4d9d010ef016f9eafbe66786bd7169f56e0c353a",
            "0x10d3b3e387ffbdc6d838b6e5082f9cc450408d097552324c9d1051ea42260efb"
          ],
          "data": "0x",
          "blockHash": "0x470ec094e5af3636b09d2dec9770e13e632777bdf26a9c900342738071345a27",
          "blockNumber": "0x13ab830",
          "transactionHash": "0xb52534590c0035cbfcf220fe524d3c516e461312f7601d11613821c4dc09dc68",
          "transactionIndex": "0x77",
          "logIndex": "0x187",
          "removed": false
        },
        {
          "address": "0x19dc38aeae620380430c200a6e990d5af5480117",
          "topics": [
            "0x253a3a04cab70d47c1504809242d9350cd81627b4f1d50753e159cf8cd76ed33"
          ],
          "data": "0x10d3b3e387ffbdc6d838b6e5082f9cc450408d097552324c9d1051ea42260efb00000000000000000000000000000000000000000000000000000000000c000d",
          "blockHash": "0x470ec094e5af3636b09d2dec9770e13e632777bdf26a9c900342738071345a27",
          "blockNumber": "0x13ab830",
          "transactionHash": "0xb52534590c0035cbfcf220fe524d3c516e461312f7601d11613821c4dc09dc68",
          "transactionIndex": "0x77",
          "logIndex": "0x188",
          "removed": false
        },
        {
          "address": "0xc3f23848ed2e04c0c6d41bd7804fa8f89f940b94",
          "topics": [
            "0x65695c3748edae85a24cc2c60b299b31f463050bc259150d2e5802ec8d11720a",
            "0x10d3b3e387ffbdc6d838b6e5082f9cc450408d097552324c9d1051ea42260efb",
            "0x000000000000000000000000000000000000000000000000000000000000a4b1"
          ],
          "data": "0x0000000000000000000000000000000000000000000000000000000000034f370000000000000000000000000000000000000000000000000000bc8d76395c29",
          "blockHash": "0x470ec094e5af3636b09d2dec9770e13e632777bdf26a9c900342738071345a27",
          "blockNumber": "0x13ab830",
          "transactionHash": "0xb52534590c0035cbfcf220fe524d3c516e461312f7601d11613821c4dc09dc68",
          "transactionIndex": "0x77",
          "logIndex": "0x189",
          "removed": false
        }
      ],
      "logsBloom": "0x00020000100000808000000000000400000000000000000000000000002000000000000000000000000000000040080000000000000001000000000000000800000000000020000000000000000000000000080000000000000000400000000000000000000000000000020000000000000000000000000000000000080000000000000080000000000000000100000000000000800000000000000000800000080002000000000000000000000000000200000000000000000000000000000200001000000000010000000000000000020000000000004000000000000000000000400001000000000000000000100000000400000000000000000000000600",
      "type": "0x2",
      "transactionHash": "0xb52534590c0035cbfcf220fe524d3c516e461312f7601d11613821c4dc09dc68",
      "transactionIndex": "0x77",
      "blockHash": "0x470ec094e5af3636b09d2dec9770e13e632777bdf26a9c900342738071345a27",
      "blockNumber": "0x13ab830",
      "gasUsed": "0x2c5be",
      "effectiveGasPrice": "0x290889",
      "from": "0x56ca414d41cd3c1188a4939b0d56417da7bb6da2",
      "to": "0x80a428aed33fec3867850c75ad8b6bb0ec1270ca",
      "contractAddress": null,
      "l1BaseFeeScalar": "0x8dd",
      "l1BlobBaseFee": "0x1",
      "l1BlobBaseFeeScalar": "0x101c12",
      "l1Fee": "0x4a6b788c7",
      "l1GasPrice": "0x108c3c89e",
      "l1GasUsed": "0x7be"
    }
  ],
  "libraries": [],
  "pending": [],
  "returns": {},
  "timestamp": 1728040264,
  "chain": 8453,
  "commit": "05cd90c"
}