{
  "transactions": [
    {
      "hash": "0xcd535afa00b8dff9833aa43d582162d0893ce8d0e4a28d288dd030514ebd55d5",
      "transactionType": "CALL",
      "contractName": null,
      "contractAddress": "0xaf88d065e77c8cc2239327c5edb3a432268e5831",
      "function": "approve(address,uint256)",
      "arguments": [
        "0x92188c8200869b7bfB9A867C545ea723bD8AfEA1",
        "500000"
      ],
      "transaction": {
        "from": "0x24a9267ce9e0a8f4467b584fdda12baf1df772b5",
        "to": "0xaf88d065e77c8cc2239327c5edb3a432268e5831",
        "gas": "0x3a162",
        "value": "0x0",
        "input": "0x095ea7b300000000000000000000000092188c8200869b7bfb9a867c545ea723bd8afea1000000000000000000000000000000000000000000000000000000000007a120",
        "nonce": "0x80",
        "chainId": "0xa4b1"
      },
      "additionalContracts": [],
      "isFixedGasLimit": false
    },
    {
      "hash": "0x5591a952973f13188e7cd249ab67a8bc14654f2f673f18f9d4b12a2aefda49f5",
      "transactionType": "CALL",
      "contractName": null,
      "contractAddress": "0x92188c8200869b7bfb9a867c545ea723bd8afea1",
      "function": "open((uint32,bytes32,bytes))",
      "arguments": [
        "(0, 0x724a95bc5e0fcc6c2336eaa80d4758d480ad1c97aded8adb282e26f72e6e24a0, 0x000000000000000000000000000000000000000000000000000000000000002000000000000000000000000024a9267ce9e0a8f4467b584fdda12baf1df772b500000000000000000000000024a9267ce9e0a8f4467b584fdda12baf1df772b5000000000000000000000000af88d065e77c8cc2239327c5edb3a432268e5831000000000000000000000000af88d065e77c8cc2239327c5edb3a432268e5831000000000000000000000000000000000000000000000000000000000007a120000000000000000000000000000000000000000000000000000000000007a120000000000000000000000000000000000000000000000000000000000000a4b1000000000000000000000000000000000000000000000000000000000000036b00000000000000000000000000000000000000000000000000000000670962a400000000000000000000000000000000000000000000000000000000000001400000000000000000000000000000000000000000000000000000000000000000)"
      ],
      "transaction": {
        "from": "0x24a9267ce9e0a8f4467b584fdda12baf1df772b5",
        "to": "0x92188c8200869b7bfb9a867c545ea723bd8afea1",
        "gas": "0xb153d",
        "value": "0x0",
        "input": "0xe917a96200000000000000000000000000000000000000000000000000000000000000200000000000000000000000000000000000000000000000000000000000000000724a95bc5e0fcc6c2336eaa80d4758d480ad1c97aded8adb282e26f72e6e24a000000000000000000000000000000000000000000000000000000000000000600000000000000000000000000000000000000000000000000000000000000180000000000000000000000000000000000000000000000000000000000000002000000000000000000000000024a9267ce9e0a8f4467b584fdda12baf1df772b500000000000000000000000024a9267ce9e0a8f4467b584fdda12baf1df772b5000000000000000000000000af88d065e77c8cc2239327c5edb3a432268e5831000000000000000000000000af88d065e77c8cc2239327c5edb3a432268e5831000000000000000000000000000000000000000000000000000000000007a120000000000000000000000000000000000000000000000000000000000007a120000000000000000000000000000000000000000000000000000000000000a4b1000000000000000000000000000000000000000000000000000000000000036b00000000000000000000000000000000000000000000000000000000670962a400000000000000000000000000000000000000000000000000000000000001400000000000000000000000000000000000000000000000000000000000000000",
        "nonce": "0x81",
        "chainId": "0xa4b1"
      },
      "additionalContracts": [],
      "isFixedGasLimit": false
    }
  ],
  "receipts": [
    {
      "status": "0x1",
      "cumulativeGasUsed": "0x4aec7",
      "logs": [
        {
          "address": "0xaf88d065e77c8cc2239327c5edb3a432268e5831",
          "topics": [
            "0x8c5be1e5ebec7d5bd14f71427d1e84f3dd0314c0f7b2291e5b200ac8c7c3b925",
            "0x00000000000000000000000024a9267ce9e0a8f4467b584fdda12baf1df772b5",
            "0x00000000000000000000000092188c8200869b7bfb9a867c545ea723bd8afea1"
          ],
          "data": "0x000000000000000000000000000000000000000000000000000000000007a120",
          "blockHash": "0x78dc7f8c4991cc7430bd303bb7bf837ea71d5e6ef3878910eda85ac12ef828e9",
          "blockNumber": "0xfa44312",
          "transactionHash": "0xcd535afa00b8dff9833aa43d582162d0893ce8d0e4a28d288dd030514ebd55d5",
          "transactionIndex": "0x2",
          "logIndex": "0x1",
          "removed": false
        }
      ],
      "logsBloom": "0x00000000000000000000000020000000000000000000000000000000000000000000000000000000000000000000000000000001000000000000000000200000000000000000040000000000000000000000000000000000000000000000000000000000000000000000000000000000000000000000000000000004000000000000000000000000000000000000000000000000004000000000000000000040020000000000000000000000000000000000000000000000000000000000000000002000000000000000000000000000000000000000000000000000000000000010000000000000000000080000200000000000000000000000000000000000",
      "type": "0x2",
      "transactionHash": "0xcd535afa00b8dff9833aa43d582162d0893ce8d0e4a28d288dd030514ebd55d5",
      "transactionIndex": "0x2",
      "blockHash": "0x78dc7f8c4991cc7430bd303bb7bf837ea71d5e6ef3878910eda85ac12ef828e9",
      "blockNumber": "0xfa44312",
      "gasUsed": "0x2424a",
      "effectiveGasPrice": "0x989680",
      "from": "0x24a9267ce9e0a8f4467b584fdda12baf1df772b5",
      "to": "0xaf88d065e77c8cc2239327c5edb3a432268e5831",
      "contractAddress": null,
      "gasUsedForL1": "0x1b785",
      "l1BlockNumber": "0x13f7835"
    },
    {
      "status": "0x1",
      "cumulativeGasUsed": "0x6f5d7",
      "logs": [
        {
          "address": "0xaf88d065e77c8cc2239327c5edb3a432268e5831",
          "topics": [
            "0xddf252ad1be2c89b69c2b068fc378daa952ba7f163c4a11628f55a4df523b3ef",
            "0x00000000000000000000000024a9267ce9e0a8f4467b584fdda12baf1df772b5",
            "0x00000000000000000000000092188c8200869b7bfb9a867c545ea723bd8afea1"
          ],
          "data": "0x000000000000000000000000000000000000000000000000000000000007a120",
          "blockHash": "0x822ed9a34519aa932f30d9596c2ea91230f12230ace03f3919113c87c2ae9fef",
          "blockNumber": "0xfa44315",
          "transactionHash": "0x5591a952973f13188e7cd249ab67a8bc14654f2f673f18f9d4b12a2aefda49f5",
          "transactionIndex": "0x1",
          "logIndex": "0x0",
          "removed": false
        },
        {
          "address": "0xaf88d065e77c8cc2239327c5edb3a432268e5831",
          "topics": [
            "0x8c5be1e5ebec7d5bd14f71427d1e84f3dd0314c0f7b2291e5b200ac8c7c3b925",
            "0x00000000000000000000000092188c8200869b7bfb9a867c545ea723bd8afea1",
            "0x000000000000000000000000d594ff25a22416c0e9d2f8fd0a7166380f338977"
          ],
          "data": "0x000000000000000000000000000000000000000000000000000000000007a120",
          "blockHash": "0x822ed9a34519aa932f30d9596c2ea91230f12230ace03f3919113c87c2ae9fef",
          "blockNumber": "0xfa44315",
          "transactionHash": "0x5591a952973f13188e7cd249ab67a8bc14654f2f673f18f9d4b12a2aefda49f5",
          "transactionIndex": "0x1",
          "logIndex": "0x1",
          "removed": false
        },
        {
          "address": "0xd594ff25a22416c0e9d2f8fd0a7166380f338977",
          "topics": [
            "0x907157e4609ce670aea12ab97af34f506fd529c78404ac1a70653e8752a2c979",
            "0x19fccbf1a27d6c7e0daa2a93a9590f32cbe566b0c6941ac8b9a3330dbb993ca6"
          ],
          "data": "0x000000000000000000000000000000000000000000000000000000000000002000000000000000000000000024a9267ce9e0a8f4467b584fdda12baf1df772b500000000000000000000000024a9267ce9e0a8f4467b584fdda12baf1df772b5000000000000000000000000000000000000000000000000000000000007a120000000000000000000000000000000000000000000000000000000000007a1200000000000000000000000000000000000000000000000000000000000000003000000000000000000000000000000000000000000000000000000000000a4b1000000000000000000000000000000000000000000000000000000000000036b00000000000000000000000000000000000000000000000000000000670962a400000000000000000000000000000000000000000000000000000000000001200000000000000000000000000000000000000000000000000000000000000000",
          "blockHash": "0x822ed9a34519aa932f30d9596c2ea91230f12230ace03f3919113c87c2ae9fef",
          "blockNumber": "0xfa44315",
          "transactionHash": "0x5591a952973f13188e7cd249ab67a8bc14654f2f673f18f9d4b12a2aefda49f5",
          "transactionIndex": "0x1",
          "logIndex": "0x2",
          "removed": false
        },
        {
          "address": "0xaf88d065e77c8cc2239327c5edb3a432268e5831",
          "topics": [
            "0xddf252ad1be2c89b69c2b068fc378daa952ba7f163c4a11628f55a4df523b3ef",
            "0x00000000000000000000000092188c8200869b7bfb9a867c545ea723bd8afea1",
            "0x000000000000000000000000d594ff25a22416c0e9d2f8fd0a7166380f338977"
          ],
          "data": "0x000000000000000000000000000000000000000000000000000000000007a120",
          "blockHash": "0x822ed9a34519aa932f30d9596c2ea91230f12230ace03f3919113c87c2ae9fef",
          "blockNumber": "0xfa44315",
          "transactionHash": "0x5591a952973f13188e7cd249ab67a8bc14654f2f673f18f9d4b12a2aefda49f5",
          "transactionIndex": "0x1",
          "logIndex": "0x3",
          "removed": false
        },
        {
          "address": "0x92188c8200869b7bfb9a867c545ea723bd8afea1",
          "topics": [
            "0x0efd3c66c8f382631c4c616ea17e61e4d15189963b7802c498d212bd09f39d0e",
            "0x19fccbf1a27d6c7e0daa2a93a9590f32cbe566b0c6941ac8b9a3330dbb993ca6"
          ],
          "data": "0x000000000000000000000000000000000000000000000000000000000000002000000000000000000000000024a9267ce9e0a8f4467b584fdda12baf1df772b5000000000000000000000000000000000000000000000000000000000000a4b100000000000000000000000000000000000000000000000000000000ffffffff000000000000000000000000000000000000000000000000000000000000000000000000000000000000000000000000000000000000000000000000000000e0000000000000000000000000000000000000000000000000000000000000018000000000000000000000000000000000000000000000000000000000000002200000000000000000000000000000000000000000000000000000000000000001000000000000000000000000af88d065e77c8cc2239327c5edb3a432268e5831000000000000000000000000000000000000000000000000000000000007a12000000000000000000000000024a9267ce9e0a8f4467b584fdda12baf1df772b5000000000000000000000000000000000000000000000000000000000000036b0000000000000000000000000000000000000000000000000000000000000001000000000000000000000000af88d065e77c8cc2239327c5edb3a432268e5831000000000000000000000000000000000000000000000000000000000007a1200000000000000000000000000000000000000000000000000000000000000000000000000000000000000000000000000000000000000000000000000000a4b100000000000000000000000000000000000000000000000000000000000000010000000000000000000000000000000000000000000000000000000000000020000000000000000000000000000000000000000000000000000000000000036b000000000000000000000000d594ff25a22416c0e9d2f8fd0a7166380f33897700000000000000000000000000000000000000000000000000000000000000600000000000000000000000000000000000000000000000000000000000000160000000000000000000000000000000000000000000000000000000000000002000000000000000000000000024a9267ce9e0a8f4467b584fdda12baf1df772b500000000000000000000000024a9267ce9e0a8f4467b584fdda12baf1df772b5000000000000000000000000000000000000000000000000000000000007a120000000000000000000000000000000000000000000000000000000000007a1200000000000000000000000000000000000000000000000000000000000000003000000000000000000000000000000000000000000000000000000000000a4b1000000000000000000000000000000000000000000000000000000000000036b00000000000000000000000000000000000000000000000000000000670962a400000000000000000000000000000000000000000000000000000000000001200000000000000000000000000000000000000000000000000000000000000000",
          "blockHash": "0x822ed9a34519aa932f30d9596c2ea91230f12230ace03f3919113c87c2ae9fef",
          "blockNumber": "0xfa44315",
          "transactionHash": "0x5591a952973f13188e7cd249ab67a8bc14654f2f673f18f9d4b12a2aefda49f5",
          "transactionIndex": "0x1",
          "logIndex": "0x4",
          "removed": false
        }
      ],
      "logsBloom": "0x00000100000000100000000020000000000000000000000000000000000000008200000000000000000000000000000000000001000000000000000010200000000020000000040000000808008000000000040000000000000000080000000000000000000000000100000101000000000000000000000000000014000020000000000000000000000000000000004000000000004000000000000000000040020000000020000000000080000000000400000000000000000000000000000000002002000000000000000000000000000000000000000000000000000000000010000000000000000000080000200000000000000000000000000000000000",
      "type": "0x2",
      "transactionHash": "0x5591a952973f13188e7cd249ab67a8bc14654f2f673f18f9d4b12a2aefda49f5",
      "transactionIndex": "0x1",
      "blockHash": "0x822ed9a34519aa932f30d9596c2ea91230f12230ace03f3919113c87c2ae9fef",
      "blockNumber": "0xfa44315",
      "gasUsed": "0x6f5d7",
      "effectiveGasPrice": "0x989680",
      "from": "0x24a9267ce9e0a8f4467b584fdda12baf1df772b5",
      "to": "0x92188c8200869b7bfb9a867c545ea723bd8afea1",
      "contractAddress": null,
      "gasUsedForL1": "0x36ca0",
      "l1BlockNumber": "0x13f7835"
    }
  ],
  "libraries": [],
  "pending": [],
  "returns": {},
  "timestamp": 1728581930,
  "chain": 42161,
  "commit": "c541543"
}