{
  "transactions": [
    {
      "hash": "0x610a54e1a53366ed4e93a0c4eb99f512858a889ea045519ffba9069a4a05b629",
      "transactionType": "CALL",
      "contractName": null,
      "contractAddress": "0xaf88d065e77c8cc2239327c5edb3a432268e5831",
      "function": "approve(address,uint256)",
      "arguments": [
        "0x867620dA768C4095b81a8470Be62Bcb52A3E6154",
        "5000000"
      ],
      "transaction": {
        "from": "0x24a9267ce9e0a8f4467b584fdda12baf1df772b5",
        "to": "0xaf88d065e77c8cc2239327c5edb3a432268e5831",
        "gas": "0x56d3b",
        "value": "0x0",
        "input": "0x095ea7b3000000000000000000000000867620da768c4095b81a8470be62bcb52a3e615400000000000000000000000000000000000000000000000000000000004c4b40",
        "nonce": "0x7d",
        "chainId": "0xa4b1"
      },
      "additionalContracts": [],
      "isFixedGasLimit": false
    },
    {
      "hash": "0x6911c8368c4defc58ee343d027947acf5a7d34230cd81aa0de4c5ca87228caec",
      "transactionType": "CALL",
      "contractName": null,
      "contractAddress": "0x867620da768c4095b81a8470be62bcb52a3e6154",
      "function": "open((uint32,bytes32,bytes))",
      "arguments": [
        "(0, 0x724a95bc5e0fcc6c2336eaa80d4758d480ad1c97aded8adb282e26f72e6e24a0, 0x000000000000000000000000000000000000000000000000000000000000002000000000000000000000000024a9267ce9e0a8f4467b584fdda12baf1df772b500000000000000000000000024a9267ce9e0a8f4467b584fdda12baf1df772b5000000000000000000000000af88d065e77c8cc2239327c5edb3a432268e5831000000000000000000000000af88d065e77c8cc2239327c5edb3a432268e583100000000000000000000000000000000000000000000000000000000004c4b4000000000000000000000000000000000000000000000000000000000004c4b40000000000000000000000000000000000000000000000000000000000000a4b1000000000000000000000000000000000000000000000000000000000000036b0000000000000000000000000000000000000000000000000000000067095c8100000000000000000000000000000000000000000000000000000000000001400000000000000000000000000000000000000000000000000000000000000000)"
      ],
      "transaction": {
        "from": "0x24a9267ce9e0a8f4467b584fdda12baf1df772b5",
        "to": "0x867620da768c4095b81a8470be62bcb52a3e6154",
        "gas": "0x509c0",
        "value": "0x0",
        "input": "0xe917a96200000000000000000000000000000000000000000000000000000000000000200000000000000000000000000000000000000000000000000000000000000000724a95bc5e0fcc6c2336eaa80d4758d480ad1c97aded8adb282e26f72e6e24a000000000000000000000000000000000000000000000000000000000000000600000000000000000000000000000000000000000000000000000000000000180000000000000000000000000000000000000000000000000000000000000002000000000000000000000000024a9267ce9e0a8f4467b584fdda12baf1df772b500000000000000000000000024a9267ce9e0a8f4467b584fdda12baf1df772b5000000000000000000000000af88d065e77c8cc2239327c5edb3a432268e5831000000000000000000000000af88d065e77c8cc2239327c5edb3a432268e583100000000000000000000000000000000000000000000000000000000004c4b4000000000000000000000000000000000000000000000000000000000004c4b40000000000000000000000000000000000000000000000000000000000000a4b1000000000000000000000000000000000000000000000000000000000000036b0000000000000000000000000000000000000000000000000000000067095c8100000000000000000000000000000000000000000000000000000000000001400000000000000000000000000000000000000000000000000000000000000000",
        "nonce": "0x7e",
        "chainId": "0xa4b1"
      },
      "additionalContracts": [],
      "isFixedGasLimit": false
    }
  ],
  "receipts": [
    {
      "status": "0x1",
      "cumulativeGasUsed": "0x3374c",
      "logs": [
        {
          "address": "0xaf88d065e77c8cc2239327c5edb3a432268e5831",
          "topics": [
            "0x8c5be1e5ebec7d5bd14f71427d1e84f3dd0314c0f7b2291e5b200ac8c7c3b925",
            "0x00000000000000000000000024a9267ce9e0a8f4467b584fdda12baf1df772b5",
            "0x000000000000000000000000867620da768c4095b81a8470be62bcb52a3e6154"
          ],
          "data": "0x00000000000000000000000000000000000000000000000000000000004c4b40",
          "blockHash": "0x03f24a5f8d68419641a2b320e65184e9e5024e4cc2825ab6ce4630bd9ebf8ef8",
          "blockNumber": "0xfa42a95",
          "transactionHash": "0x610a54e1a53366ed4e93a0c4eb99f512858a889ea045519ffba9069a4a05b629",
          "transactionIndex": "0x1",
          "logIndex": "0x0",
          "removed": false
        }
      ],
      "logsBloom": "0x00000000000000000000000020000000000000000000000000000000000000000000000000000000000000000000000000000001000000000000000000200000000040000000000000000000000000000000000000000000000000000000000000000000000000000000000000000000000000008000000000000000000000000000000000000000000000000000000000000000000000000000000000000040020000000000000000000000000000000000000000000000000000000000000000002000000000000000000000000000000000000000000000000000000000000010000000000000000000080000220000000000000000000000000000000000",
      "type": "0x2",
      "transactionHash": "0x610a54e1a53366ed4e93a0c4eb99f512858a889ea045519ffba9069a4a05b629",
      "transactionIndex": "0x1",
      "blockHash": "0x03f24a5f8d68419641a2b320e65184e9e5024e4cc2825ab6ce4630bd9ebf8ef8",
      "blockNumber": "0xfa42a95",
      "gasUsed": "0x3374c",
      "effectiveGasPrice": "0xa2faa8",
      "from": "0x24a9267ce9e0a8f4467b584fdda12baf1df772b5",
      "to": "0xaf88d065e77c8cc2239327c5edb3a432268e5831",
      "contractAddress": null,
      "gasUsedForL1": "0x25ebf",
      "l1BlockNumber": "0x13f77b2"
    },
    {
      "status": "0x1",
      "cumulativeGasUsed": "0x281c00",
      "logs": [
        {
          "address": "0xaf88d065e77c8cc2239327c5edb3a432268e5831",
          "topics": [
            "0xddf252ad1be2c89b69c2b068fc378daa952ba7f163c4a11628f55a4df523b3ef",
            "0x00000000000000000000000024a9267ce9e0a8f4467b584fdda12baf1df772b5",
            "0x000000000000000000000000867620da768c4095b81a8470be62bcb52a3e6154"
          ],
          "data": "0x00000000000000000000000000000000000000000000000000000000004c4b40",
          "blockHash": "0x7abd807bf9bd044e16f30d42aab20d6649d37098d3107d93ebe6f198ead9ad89",
          "blockNumber": "0xfa42a98",
          "transactionHash": "0x6911c8368c4defc58ee343d027947acf5a7d34230cd81aa0de4c5ca87228caec",
          "transactionIndex": "0x4",
          "logIndex": "0xd",
          "removed": false
        },
        {
          "address": "0xaf88d065e77c8cc2239327c5edb3a432268e5831",
          "topics": [
            "0x8c5be1e5ebec7d5bd14f71427d1e84f3dd0314c0f7b2291e5b200ac8c7c3b925",
            "0x000000000000000000000000867620da768c4095b81a8470be62bcb52a3e6154",
            "0x000000000000000000000000d594ff25a22416c0e9d2f8fd0a7166380f338977"
          ],
          "data": "0x00000000000000000000000000000000000000000000000000000000004c4b40",
          "blockHash": "0x7abd807bf9bd044e16f30d42aab20d6649d37098d3107d93ebe6f198ead9ad89",
          "blockNumber": "0xfa42a98",
          "transactionHash": "0x6911c8368c4defc58ee343d027947acf5a7d34230cd81aa0de4c5ca87228caec",
          "transactionIndex": "0x4",
          "logIndex": "0xe",
          "removed": false
        },
        {
          "address": "0xd594ff25a22416c0e9d2f8fd0a7166380f338977",
          "topics": [
            "0x907157e4609ce670aea12ab97af34f506fd529c78404ac1a70653e8752a2c979",
            "0xc9312f0d179d87bfce0057621f818e947fde938617c9606cafe46a9306af3e5e"
          ],
          "data": "0x000000000000000000000000000000000000000000000000000000000000002000000000000000000000000024a9267ce9e0a8f4467b584fdda12baf1df772b500000000000000000000000024a9267ce9e0a8f4467b584fdda12baf1df772b500000000000000000000000000000000000000000000000000000000004c4b4000000000000000000000000000000000000000000000000000000000004c4b400000000000000000000000000000000000000000000000000000000000000002000000000000000000000000000000000000000000000000000000000000a4b1000000000000000000000000000000000000000000000000000000000000036b0000000000000000000000000000000000000000000000000000000067095c8100000000000000000000000000000000000000000000000000000000000001200000000000000000000000000000000000000000000000000000000000000000",
          "blockHash": "0x7abd807bf9bd044e16f30d42aab20d6649d37098d3107d93ebe6f198ead9ad89",
          "blockNumber": "0xfa42a98",
          "transactionHash": "0x6911c8368c4defc58ee343d027947acf5a7d34230cd81aa0de4c5ca87228caec",
          "transactionIndex": "0x4",
          "logIndex": "0xf",
          "removed": false
        },
        {
          "address": "0xaf88d065e77c8cc2239327c5edb3a432268e5831",
          "topics": [
            "0xddf252ad1be2c89b69c2b068fc378daa952ba7f163c4a11628f55a4df523b3ef",
            "0x000000000000000000000000867620da768c4095b81a8470be62bcb52a3e6154",
            "0x000000000000000000000000d594ff25a22416c0e9d2f8fd0a7166380f338977"
          ],
          "data": "0x00000000000000000000000000000000000000000000000000000000004c4b40",
          "blockHash": "0x7abd807bf9bd044e16f30d42aab20d6649d37098d3107d93ebe6f198ead9ad89",
          "blockNumber": "0xfa42a98",
          "transactionHash": "0x6911c8368c4defc58ee343d027947acf5a7d34230cd81aa0de4c5ca87228caec",
          "transactionIndex": "0x4",
          "logIndex": "0x10",
          "removed": false
        },
        {
          "address": "0x867620da768c4095b81a8470be62bcb52a3e6154",
          "topics": [
            "0x0efd3c66c8f382631c4c616ea17e61e4d15189963b7802c498d212bd09f39d0e",
            "0xc9312f0d179d87bfce0057621f818e947fde938617c9606cafe46a9306af3e5e"
          ],
          "data": "0x000000000000000000000000000000000000000000000000000000000000002000000000000000000000000024a9267ce9e0a8f4467b584fdda12baf1df772b5000000000000000000000000000000000000000000000000000000000000a4b100000000000000000000000000000000000000000000000000000000ffffffff000000000000000000000000000000000000000000000000000000000000000000000000000000000000000000000000000000000000000000000000000000e0000000000000000000000000000000000000000000000000000000000000018000000000000000000000000000000000000000000000000000000000000002200000000000000000000000000000000000000000000000000000000000000001000000000000000000000000af88d065e77c8cc2239327c5edb3a432268e583100000000000000000000000000000000000000000000000000000000004c4b4000000000000000000000000024a9267ce9e0a8f4467b584fdda12baf1df772b5000000000000000000000000000000000000000000000000000000000000036b0000000000000000000000000000000000000000000000000000000000000001000000000000000000000000af88d065e77c8cc2239327c5edb3a432268e583100000000000000000000000000000000000000000000000000000000004c4b400000000000000000000000000000000000000000000000000000000000000000000000000000000000000000000000000000000000000000000000000000a4b1000000000000000000000000000000000000000000000000000000000000000100000000000000000000000000000000000000000000000000000000000000200000000000000000000000000000000000000000000000000000000000000000000000000000000000000000000000000000000000000000000000000000000000000000000000000000000000000000000000000000000000000000000000600000000000000000000000000000000000000000000000000000000000000000",
          "blockHash": "0x7abd807bf9bd044e16f30d42aab20d6649d37098d3107d93ebe6f198ead9ad89",
          "blockNumber": "0xfa42a98",
          "transactionHash": "0x6911c8368c4defc58ee343d027947acf5a7d34230cd81aa0de4c5ca87228caec",
          "transactionIndex": "0x4",
          "logIndex": "0x11",
          "removed": false
        }
      ],
      "logsBloom": "0x00000100000000100000000020000000000000000000000000000000000004008200000000000040000000000000000000000001000000000000000010200000000060000000000000000008208000000020000000000000000000080000000000000000008000000100000101000000000000008000000000000010000020000000000000000000000000000000004000000000000000000000000000000040020000000000000000000000000000000000000000000000000000000000000000002002000000000000000000000000000000000000000000000000000000000010000000000000000000080000220000000000000000000000000000000000",
      "type": "0x2",
      "transactionHash": "0x6911c8368c4defc58ee343d027947acf5a7d34230cd81aa0de4c5ca87228caec",
      "transactionIndex": "0x4",
      "blockHash": "0x7abd807bf9bd044e16f30d42aab20d6649d37098d3107d93ebe6f198ead9ad89",
      "blockNumber": "0xfa42a98",
      "gasUsed": "0x84dbe",
      "effectiveGasPrice": "0xa1a2e8",
      "from": "0x24a9267ce9e0a8f4467b584fdda12baf1df772b5",
      "to": "0x867620da768c4095b81a8470be62bcb52a3e6154",
      "contractAddress": null,
      "gasUsedForL1": "0x4dbdc",
      "l1BlockNumber": "0x13f77b4"
    }
  ],
  "libraries": [],
  "pending": [],
  "returns": {},
  "timestamp": 1728580358,
  "chain": 42161,
  "commit": "c541543"
}