{
  "transactions": [
    {
      "hash": "0x6178d4b4fc99b88badeb4b3487101c4e160bf27996b61e4ac7473d06b9ba745c",
      "transactionType": "CALL",
      "contractName": null,
      "contractAddress": "0xaf88d065e77c8cc2239327c5edb3a432268e5831",
      "function": "approve(address,uint256)",
      "arguments": [
        "0x92188c8200869b7bfB9A867C545ea723bD8AfEA1",
        "115792089237316195423570985008687907853269984665640564039457584007913129639935"
      ],
      "transaction": {
        "from": "0x24a9267ce9e0a8f4467b584fdda12baf1df772b5",
        "to": "0xaf88d065e77c8cc2239327c5edb3a432268e5831",
        "gas": "0x32790",
        "value": "0x0",
        "input": "0x095ea7b300000000000000000000000092188c8200869b7bfb9a867c545ea723bd8afea1ffffffffffffffffffffffffffffffffffffffffffffffffffffffffffffffff",
        "nonce": "0x82",
        "chainId": "0xa4b1"
      },
      "additionalContracts": [],
      "isFixedGasLimit": false
    },
    {
      "hash": "0x08c3da396ab9e63b43bfd6c6d515de4782e7ed8aa9f99a4c755193dfcc5aa0a9",
      "transactionType": "CALL",
      "contractName": null,
      "contractAddress": "0x92188c8200869b7bfb9a867c545ea723bd8afea1",
      "function": "open((uint32,bytes32,bytes))",
      "arguments": [
        "(0, 0x724a95bc5e0fcc6c2336eaa80d4758d480ad1c97aded8adb282e26f72e6e24a0, 0x000000000000000000000000000000000000000000000000000000000000002000000000000000000000000024a9267ce9e0a8f4467b584fdda12baf1df772b50000000000000000000000004a92560c84e522819d9785a13d6adc44cddefac700000000000000000000000000000000000000000000000000000000000001400000000000000000000000000000000000000000000000000000000000000180000000000000000000000000000000000000000000000000000000000007a120000000000000000000000000000000000000000000000000000000000007a120000000000000000000000000000000000000000000000000000000000000a4b1000000000000000000000000000000000000000000000000000000000000036b00000000000000000000000000000000000000000000000000000000670a1dcf00000000000000000000000000000000000000000000000000000000000002000000000000000000000000000000000000000000000000000000000000000020000000000000000000000000af88d065e77c8cc2239327c5edb3a432268e583100000000000000000000000000000000000000000000000000000000000000446962632f34393841303735314337393841304439413338394141333639313132334441444135374441413446453136354435433735383934353035423837364241364534000000000000000000000000000000000000000000000000000000000000000000000000000000000000000000000000000000000000000000000000)"
      ],
      "transaction": {
        "from": "0x24a9267ce9e0a8f4467b584fdda12baf1df772b5",
        "to": "0x92188c8200869b7bfb9a867c545ea723bd8afea1",
        "gas": "0x4fc69",
        "value": "0x0",
        "input": "0xe917a96200000000000000000000000000000000000000000000000000000000000000200000000000000000000000000000000000000000000000000000000000000000724a95bc5e0fcc6c2336eaa80d4758d480ad1c97aded8adb282e26f72e6e24a000000000000000000000000000000000000000000000000000000000000000600000000000000000000000000000000000000000000000000000000000000240000000000000000000000000000000000000000000000000000000000000002000000000000000000000000024a9267ce9e0a8f4467b584fdda12baf1df772b50000000000000000000000004a92560c84e522819d9785a13d6adc44cddefac700000000000000000000000000000000000000000000000000000000000001400000000000000000000000000000000000000000000000000000000000000180000000000000000000000000000000000000000000000000000000000007a120000000000000000000000000000000000000000000000000000000000007a120000000000000000000000000000000000000000000000000000000000000a4b1000000000000000000000000000000000000000000000000000000000000036b00000000000000000000000000000000000000000000000000000000670a1dcf00000000000000000000000000000000000000000000000000000000000002000000000000000000000000000000000000000000000000000000000000000020000000000000000000000000af88d065e77c8cc2239327c5edb3a432268e583100000000000000000000000000000000000000000000000000000000000000446962632f34393841303735314337393841304439413338394141333639313132334441444135374441413446453136354435433735383934353035423837364241364534000000000000000000000000000000000000000000000000000000000000000000000000000000000000000000000000000000000000000000000000",
        "nonce": "0x83",
        "chainId": "0xa4b1"
      },
      "additionalContracts": [],
      "isFixedGasLimit": false
    }
  ],
  "receipts": [
    {
      "status": "0x1",
      "cumulativeGasUsed": "0x98552",
      "logs": [
        {
          "address": "0xaf88d065e77c8cc2239327c5edb3a432268e5831",
          "topics": [
            "0x8c5be1e5ebec7d5bd14f71427d1e84f3dd0314c0f7b2291e5b200ac8c7c3b925",
            "0x00000000000000000000000024a9267ce9e0a8f4467b584fdda12baf1df772b5",
            "0x00000000000000000000000092188c8200869b7bfb9a867c545ea723bd8afea1"
          ],
          "data": "0xffffffffffffffffffffffffffffffffffffffffffffffffffffffffffffffff",
          "blockHash": "0xce01f70c022d946db04623659ebe401ac3fcf5d2bb3b34dd6f8965eee5490a70",
          "blockNumber": "0xfa72910",
          "transactionHash": "0x6178d4b4fc99b88badeb4b3487101c4e160bf27996b61e4ac7473d06b9ba745c",
          "transactionIndex": "0x3",
          "logIndex": "0x8",
          "removed": false
        }
      ],
      "logsBloom": "0x00000000000000000000000020000000000000000000000000000000000000000000000000000000000000000000000000000001000000000000000000200000000000000000040000000000000000000000000000000000000000000000000000000000000000000000000000000000000000000000000000000004000000000000000000000000000000000000000000000000004000000000000000000040020000000000000000000000000000000000000000000000000000000000000000002000000000000000000000000000000000000000000000000000000000000010000000000000000000080000200000000000000000000000000000000000",
      "type": "0x2",
      "transactionHash": "0x6178d4b4fc99b88badeb4b3487101c4e160bf27996b61e4ac7473d06b9ba745c",
      "transactionIndex": "0x3",
      "blockHash": "0xce01f70c022d946db04623659ebe401ac3fcf5d2bb3b34dd6f8965eee5490a70",
      "blockNumber": "0xfa72910",
      "gasUsed": "0x20f69",
      "effectiveGasPrice": "0x989680",
      "from": "0x24a9267ce9e0a8f4467b584fdda12baf1df772b5",
      "to": "0xaf88d065e77c8cc2239327c5edb3a432268e5831",
      "contractAddress": null,
      "gasUsedForL1": "0x1358c",
      "l1BlockNumber": "0x13f87be"
    },
    {
      "status": "0x1",
      "cumulativeGasUsed": "0x17bf0b",
      "logs": [
        {
          "address": "0xaf88d065e77c8cc2239327c5edb3a432268e5831",
          "topics": [
            "0xddf252ad1be2c89b69c2b068fc378daa952ba7f163c4a11628f55a4df523b3ef",
            "0x00000000000000000000000024a9267ce9e0a8f4467b584fdda12baf1df772b5",
            "0x00000000000000000000000092188c8200869b7bfb9a867c545ea723bd8afea1"
          ],
          "data": "0x000000000000000000000000000000000000000000000000000000000007a120",
          "blockHash": "0xbc732a5fb9f4df37a3f622d2ed885328a1e6c5b0cbd9f3c4350155789a41247b",
          "blockNumber": "0xfa72913",
          "transactionHash": "0x08c3da396ab9e63b43bfd6c6d515de4782e7ed8aa9f99a4c755193dfcc5aa0a9",
          "transactionIndex": "0x5",
          "logIndex": "0x14",
          "removed": false
        },
        {
          "address": "0xaf88d065e77c8cc2239327c5edb3a432268e5831",
          "topics": [
            "0x8c5be1e5ebec7d5bd14f71427d1e84f3dd0314c0f7b2291e5b200ac8c7c3b925",
            "0x00000000000000000000000092188c8200869b7bfb9a867c545ea723bd8afea1",
            "0x000000000000000000000000d594ff25a22416c0e9d2f8fd0a7166380f338977"
          ],
          "data": "0x000000000000000000000000000000000000000000000000000000000007a120",
          "blockHash": "0xbc732a5fb9f4df37a3f622d2ed885328a1e6c5b0cbd9f3c4350155789a41247b",
          "blockNumber": "0xfa72913",
          "transactionHash": "0x08c3da396ab9e63b43bfd6c6d515de4782e7ed8aa9f99a4c755193dfcc5aa0a9",
          "transactionIndex": "0x5",
          "logIndex": "0x15",
          "removed": false
        },
        {
          "address": "0xd594ff25a22416c0e9d2f8fd0a7166380f338977",
          "topics": [
            "0x907157e4609ce670aea12ab97af34f506fd529c78404ac1a70653e8752a2c979",
            "0x01873f18d49efd9165a3c3496c4997e4e51a7365d685390b4016ceda71dcd7fb"
          ],
          "data": "0x000000000000000000000000000000000000000000000000000000000000002000000000000000000000000024a9267ce9e0a8f4467b584fdda12baf1df772b50000000000000000000000004a92560c84e522819d9785a13d6adc44cddefac7000000000000000000000000000000000000000000000000000000000007a120000000000000000000000000000000000000000000000000000000000007a1200000000000000000000000000000000000000000000000000000000000000004000000000000000000000000000000000000000000000000000000000000a4b1000000000000000000000000000000000000000000000000000000000000036b00000000000000000000000000000000000000000000000000000000670a1dcf00000000000000000000000000000000000000000000000000000000000001200000000000000000000000000000000000000000000000000000000000000000",
          "blockHash": "0xbc732a5fb9f4df37a3f622d2ed885328a1e6c5b0cbd9f3c4350155789a41247b",
          "blockNumber": "0xfa72913",
          "transactionHash": "0x08c3da396ab9e63b43bfd6c6d515de4782e7ed8aa9f99a4c755193dfcc5aa0a9",
          "transactionIndex": "0x5",
          "logIndex": "0x16",
          "removed": false
        },
        {
          "address": "0xaf88d065e77c8cc2239327c5edb3a432268e5831",
          "topics": [
            "0xddf252ad1be2c89b69c2b068fc378daa952ba7f163c4a11628f55a4df523b3ef",
            "0x00000000000000000000000092188c8200869b7bfb9a867c545ea723bd8afea1",
            "0x000000000000000000000000d594ff25a22416c0e9d2f8fd0a7166380f338977"
          ],
          "data": "0x000000000000000000000000000000000000000000000000000000000007a120",
          "blockHash": "0xbc732a5fb9f4df37a3f622d2ed885328a1e6c5b0cbd9f3c4350155789a41247b",
          "blockNumber": "0xfa72913",
          "transactionHash": "0x08c3da396ab9e63b43bfd6c6d515de4782e7ed8aa9f99a4c755193dfcc5aa0a9",
          "transactionIndex": "0x5",
          "logIndex": "0x17",
          "removed": false
        },
        {
          "address": "0x92188c8200869b7bfb9a867c545ea723bd8afea1",
          "topics": [
            "0x3f37fc7497ab35c3d02f3a854d5ca73476fcc1848d674e23af4aa8414d276005",
            "0x01873f18d49efd9165a3c3496c4997e4e51a7365d685390b4016ceda71dcd7fb"
          ],
          "data": "0x000000000000000000000000000000000000000000000000000000000000002000000000000000000000000024a9267ce9e0a8f4467b584fdda12baf1df772b5000000000000000000000000000000000000000000000000000000000000a4b100000000000000000000000000000000000000000000000000000000ffffffff000000000000000000000000000000000000000000000000000000000000000000000000000000000000000000000000000000000000000000000000000000e000000000000000000000000000000000000000000000000000000000000002200000000000000000000000000000000000000000000000000000000000000320000000000000000000000000000000000000000000000000000000000000000100000000000000000000000000000000000000000000000000000000000000200000000000000000000000000000000000000000000000000000000000000080000000000000000000000000000000000000000000000000000000000007a1200000000000000000000000004a92560c84e522819d9785a13d6adc44cddefac7000000000000000000000000000000000000000000000000000000000000036b00000000000000000000000000000000000000000000000000000000000000446962632f3439384130373531433739384130443941333839414133363931313233444144413537444141344645313635443543373538393435303542383736424136453400000000000000000000000000000000000000000000000000000000000000000000000000000000000000000000000000000000000000000000000100000000000000000000000000000000000000000000000000000000000000200000000000000000000000000000000000000000000000000000000000000080000000000000000000000000000000000000000000000000000000000007a1200000000000000000000000000000000000000000000000000000000000000000000000000000000000000000000000000000000000000000000000000000a4b10000000000000000000000000000000000000000000000000000000000000020000000000000000000000000af88d065e77c8cc2239327c5edb3a432268e583100000000000000000000000000000000000000000000000000000000000000010000000000000000000000000000000000000000000000000000000000000020000000000000000000000000000000000000000000000000000000000000036bc4c59a62a4f49da2a2e2c0a13e158500a26e332c753a41a90f0f63d2753cdff900000000000000000000000000000000000000000000000000000000000000600000000000000000000000000000000000000000000000000000000000000160000000000000000000000000000000000000000000000000000000000000002000000000000000000000000024a9267ce9e0a8f4467b584fdda12baf1df772b50000000000000000000000004a92560c84e522819d9785a13d6adc44cddefac7000000000000000000000000000000000000000000000000000000000007a120000000000000000000000000000000000000000000000000000000000007a1200000000000000000000000000000000000000000000000000000000000000004000000000000000000000000000000000000000000000000000000000000a4b1000000000000000000000000000000000000000000000000000000000000036b00000000000000000000000000000000000000000000000000000000670a1dcf00000000000000000000000000000000000000000000000000000000000001200000000000000000000000000000000000000000000000000000000000000000",
          "blockHash": "0xbc732a5fb9f4df37a3f622d2ed885328a1e6c5b0cbd9f3c4350155789a41247b",
          "blockNumber": "0xfa72913",
          "transactionHash": "0x08c3da396ab9e63b43bfd6c6d515de4782e7ed8aa9f99a4c755193dfcc5aa0a9",
          "transactionIndex": "0x5",
          "logIndex": "0x18",
          "removed": false
        }
      ],
      "logsBloom": "0x00000100000000100000000020000000080000000000000000000000000000008200000000000000000000000000000000000001000000000000000010200000000040000000040000000008008000000000040000000000000000080000000000000000000000000100000100000000000000000000000000000014000020000001000000000000000000000000000000000000004000000000000000000040020000002020000000000000000000000000000200000000000000000000000000002002000000000000000000000000000000000000000000000000000000000010000000000000000000080008200000000000000000000000000000000000",
      "type": "0x2",
      "transactionHash": "0x08c3da396ab9e63b43bfd6c6d515de4782e7ed8aa9f99a4c755193dfcc5aa0a9",
      "transactionIndex": "0x5",
      "blockHash": "0xbc732a5fb9f4df37a3f622d2ed885328a1e6c5b0cbd9f3c4350155789a41247b",
      "blockNumber": "0xfa72913",
      "gasUsed": "0x68b8d",
      "effectiveGasPrice": "0x989680",
      "from": "0x24a9267ce9e0a8f4467b584fdda12baf1df772b5",
      "to": "0x92188c8200869b7bfb9a867c545ea723bd8afea1",
      "contractAddress": null,
      "gasUsedForL1": "0x322ca",
      "l1BlockNumber": "0x13f87be"
    }
  ],
  "libraries": [],
  "pending": [],
  "returns": {},
  "timestamp": 1728629844,
  "chain": 42161,
  "commit": "c541543"
}