{
  "transactions": [
    {
      "hash": "0x9c834670a72db97e6c46f65b7e1423dfb89c59559719f5b598c439f0cff9c8eb",
      "transactionType": "CALL",
      "contractName": null,
      "contractAddress": "0x92188c8200869b7bfb9a867c545ea723bd8afea1",
      "function": "open((uint32,bytes32,bytes))",
      "arguments": [
        "(0, 0x724a95bc5e0fcc6c2336eaa80d4758d480ad1c97aded8adb282e26f72e6e24a0, 0x000000000000000000000000000000000000000000000000000000000000002000000000000000000000000024a9267ce9e0a8f4467b584fdda12baf1df772b50000000000000000000000004a92560c84e522819d9785a13d6adc44cddefac700000000000000000000000000000000000000000000000000000000000001400000000000000000000000000000000000000000000000000000000000000180000000000000000000000000000000000000000000000000000000000007a120000000000000000000000000000000000000000000000000000000000007a120000000000000000000000000000000000000000000000000000000000000a4b1000000000000000000000000000000000000000000000000000000000000036b00000000000000000000000000000000000000000000000000000000670a293500000000000000000000000000000000000000000000000000000000000002000000000000000000000000000000000000000000000000000000000000000020000000000000000000000000af88d065e77c8cc2239327c5edb3a432268e583100000000000000000000000000000000000000000000000000000000000000446962632f34393841303735314337393841304439413338394141333639313132334441444135374441413446453136354435433735383934353035423837364241364534000000000000000000000000000000000000000000000000000000000000000000000000000000000000000000000000000000000000000000000000)"
      ],
      "transaction": {
        "from": "0x24a9267ce9e0a8f4467b584fdda12baf1df772b5",
        "to": "0x92188c8200869b7bfb9a867c545ea723bd8afea1",
        "gas": "0x9d625",
        "value": "0x0",
        "input": "0xe917a96200000000000000000000000000000000000000000000000000000000000000200000000000000000000000000000000000000000000000000000000000000000724a95bc5e0fcc6c2336eaa80d4758d480ad1c97aded8adb282e26f72e6e24a000000000000000000000000000000000000000000000000000000000000000600000000000000000000000000000000000000000000000000000000000000240000000000000000000000000000000000000000000000000000000000000002000000000000000000000000024a9267ce9e0a8f4467b584fdda12baf1df772b50000000000000000000000004a92560c84e522819d9785a13d6adc44cddefac700000000000000000000000000000000000000000000000000000000000001400000000000000000000000000000000000000000000000000000000000000180000000000000000000000000000000000000000000000000000000000007a120000000000000000000000000000000000000000000000000000000000007a120000000000000000000000000000000000000000000000000000000000000a4b1000000000000000000000000000000000000000000000000000000000000036b00000000000000000000000000000000000000000000000000000000670a293500000000000000000000000000000000000000000000000000000000000002000000000000000000000000000000000000000000000000000000000000000020000000000000000000000000af88d065e77c8cc2239327c5edb3a432268e583100000000000000000000000000000000000000000000000000000000000000446962632f34393841303735314337393841304439413338394141333639313132334441444135374441413446453136354435433735383934353035423837364241364534000000000000000000000000000000000000000000000000000000000000000000000000000000000000000000000000000000000000000000000000",
        "nonce": "0x84",
        "chainId": "0xa4b1"
      },
      "additionalContracts": [],
      "isFixedGasLimit": false
    }
  ],
  "receipts": [
    {
      "status": "0x1",
      "cumulativeGasUsed": "0xe5b2a",
      "logs": [
        {
          "address": "0xaf88d065e77c8cc2239327c5edb3a432268e5831",
          "topics": [
            "0xddf252ad1be2c89b69c2b068fc378daa952ba7f163c4a11628f55a4df523b3ef",
            "0x00000000000000000000000024a9267ce9e0a8f4467b584fdda12baf1df772b5",
            "0x00000000000000000000000092188c8200869b7bfb9a867c545ea723bd8afea1"
          ],
          "data": "0x000000000000000000000000000000000000000000000000000000000007a120",
          "blockHash": "0x45798476b3fc3cc714e4987cb23f72a18001be972a4be8de0a87eca2c8fee9a1",
          "blockNumber": "0xfa7567a",
          "transactionHash": "0x9c834670a72db97e6c46f65b7e1423dfb89c59559719f5b598c439f0cff9c8eb",
          "transactionIndex": "0x4",
          "logIndex": "0x9",
          "removed": false
        },
        {
          "address": "0xaf88d065e77c8cc2239327c5edb3a432268e5831",
          "topics": [
            "0x8c5be1e5ebec7d5bd14f71427d1e84f3dd0314c0f7b2291e5b200ac8c7c3b925",
            "0x00000000000000000000000092188c8200869b7bfb9a867c545ea723bd8afea1",
            "0x000000000000000000000000d594ff25a22416c0e9d2f8fd0a7166380f338977"
          ],
          "data": "0x000000000000000000000000000000000000000000000000000000000007a120",
          "blockHash": "0x45798476b3fc3cc714e4987cb23f72a18001be972a4be8de0a87eca2c8fee9a1",
          "blockNumber": "0xfa7567a",
          "transactionHash": "0x9c834670a72db97e6c46f65b7e1423dfb89c59559719f5b598c439f0cff9c8eb",
          "transactionIndex": "0x4",
          "logIndex": "0xa",
          "removed": false
        },
        {
          "address": "0xd594ff25a22416c0e9d2f8fd0a7166380f338977",
          "topics": [
            "0x907157e4609ce670aea12ab97af34f506fd529c78404ac1a70653e8752a2c979",
            "0x6250c97583241660f125370ef48569c84b6d5f19be4fea05e1135d27124f6f93"
          ],
          "data": "0x000000000000000000000000000000000000000000000000000000000000002000000000000000000000000024a9267ce9e0a8f4467b584fdda12baf1df772b50000000000000000000000004a92560c84e522819d9785a13d6adc44cddefac7000000000000000000000000000000000000000000000000000000000007a120000000000000000000000000000000000000000000000000000000000007a1200000000000000000000000000000000000000000000000000000000000000005000000000000000000000000000000000000000000000000000000000000a4b1000000000000000000000000000000000000000000000000000000000000036b00000000000000000000000000000000000000000000000000000000670a293500000000000000000000000000000000000000000000000000000000000001200000000000000000000000000000000000000000000000000000000000000000",
          "blockHash": "0x45798476b3fc3cc714e4987cb23f72a18001be972a4be8de0a87eca2c8fee9a1",
          "blockNumber": "0xfa7567a",
          "transactionHash": "0x9c834670a72db97e6c46f65b7e1423dfb89c59559719f5b598c439f0cff9c8eb",
          "transactionIndex": "0x4",
          "logIndex": "0xb",
          "removed": false
        },
        {
          "address": "0xaf88d065e77c8cc2239327c5edb3a432268e5831",
          "topics": [
            "0xddf252ad1be2c89b69c2b068fc378daa952ba7f163c4a11628f55a4df523b3ef",
            "0x00000000000000000000000092188c8200869b7bfb9a867c545ea723bd8afea1",
            "0x000000000000000000000000d594ff25a22416c0e9d2f8fd0a7166380f338977"
          ],
          "data": "0x000000000000000000000000000000000000000000000000000000000007a120",
          "blockHash": "0x45798476b3fc3cc714e4987cb23f72a18001be972a4be8de0a87eca2c8fee9a1",
          "blockNumber": "0xfa7567a",
          "transactionHash": "0x9c834670a72db97e6c46f65b7e1423dfb89c59559719f5b598c439f0cff9c8eb",
          "transactionIndex": "0x4",
          "logIndex": "0xc",
          "removed": false
        },
        {
          "address": "0x92188c8200869b7bfb9a867c545ea723bd8afea1",
          "topics": [
            "0x3f37fc7497ab35c3d02f3a854d5ca73476fcc1848d674e23af4aa8414d276005",
            "0x6250c97583241660f125370ef48569c84b6d5f19be4fea05e1135d27124f6f93"
          ],
          "data": "0x000000000000000000000000000000000000000000000000000000000000002000000000000000000000000024a9267ce9e0a8f4467b584fdda12baf1df772b5000000000000000000000000000000000000000000000000000000000000a4b100000000000000000000000000000000000000000000000000000000ffffffff000000000000000000000000000000000000000000000000000000000000000000000000000000000000000000000000000000000000000000000000000000e000000000000000000000000000000000000000000000000000000000000002200000000000000000000000000000000000000000000000000000000000000320000000000000000000000000000000000000000000000000000000000000000100000000000000000000000000000000000000000000000000000000000000200000000000000000000000000000000000000000000000000000000000000080000000000000000000000000000000000000000000000000000000000007a1200000000000000000000000004a92560c84e522819d9785a13d6adc44cddefac7000000000000000000000000000000000000000000000000000000000000036b00000000000000000000000000000000000000000000000000000000000000446962632f3439384130373531433739384130443941333839414133363931313233444144413537444141344645313635443543373538393435303542383736424136453400000000000000000000000000000000000000000000000000000000000000000000000000000000000000000000000000000000000000000000000100000000000000000000000000000000000000000000000000000000000000200000000000000000000000000000000000000000000000000000000000000080000000000000000000000000000000000000000000000000000000000007a1200000000000000000000000000000000000000000000000000000000000000000000000000000000000000000000000000000000000000000000000000000a4b10000000000000000000000000000000000000000000000000000000000000020000000000000000000000000af88d065e77c8cc2239327c5edb3a432268e583100000000000000000000000000000000000000000000000000000000000000010000000000000000000000000000000000000000000000000000000000000020000000000000000000000000000000000000000000000000000000000000036b81c1a03bfeb8bc69a5d018e0e12472b3ea02db2798d561522a8da0d74a5ccc5900000000000000000000000000000000000000000000000000000000000000600000000000000000000000000000000000000000000000000000000000000160000000000000000000000000000000000000000000000000000000000000002000000000000000000000000024a9267ce9e0a8f4467b584fdda12baf1df772b50000000000000000000000004a92560c84e522819d9785a13d6adc44cddefac7000000000000000000000000000000000000000000000000000000000007a120000000000000000000000000000000000000000000000000000000000007a1200000000000000000000000000000000000000000000000000000000000000005000000000000000000000000000000000000000000000000000000000000a4b1000000000000000000000000000000000000000000000000000000000000036b00000000000000000000000000000000000000000000000000000000670a293500000000000000000000000000000000000000000000000000000000000001200000000000000000000000000000000000000000000000000000000000000000",
          "blockHash": "0x45798476b3fc3cc714e4987cb23f72a18001be972a4be8de0a87eca2c8fee9a1",
          "blockNumber": "0xfa7567a",
          "transactionHash": "0x9c834670a72db97e6c46f65b7e1423dfb89c59559719f5b598c439f0cff9c8eb",
          "transactionIndex": "0x4",
          "logIndex": "0xd",
          "removed": false
        }
      ],
      "logsBloom": "0x00000100000000100000000020000000080400000000000000000000000000008200000000000000000000000000000000000001000000000080000010200000000000000000040000000008008000000000040000000000000000080000000000000000000000000100000100000000000000000000000000000014000020000001000000000000080000000000000000000000004000000000000000000040020000000020000000000000000000000000000200000000000000000000000000002002000000000000000000000000000000000000000000000000000000000010000000000000000000080000200000000000000000000000000000000000",
      "type": "0x2",
      "transactionHash": "0x9c834670a72db97e6c46f65b7e1423dfb89c59559719f5b598c439f0cff9c8eb",
      "transactionIndex": "0x4",
      "blockHash": "0x45798476b3fc3cc714e4987cb23f72a18001be972a4be8de0a87eca2c8fee9a1",
      "blockNumber": "0xfa7567a",
      "gasUsed": "0x63173",
      "effectiveGasPrice": "0x989680",
      "from": "0x24a9267ce9e0a8f4467b584fdda12baf1df772b5",
      "to": "0x92188c8200869b7bfb9a867c545ea723bd8afea1",
      "contractAddress": null,
      "gasUsedForL1": "0x2c5da",
      "l1BlockNumber": "0x13f88af"
    }
  ],
  "libraries": [],
  "pending": [],
  "returns": {},
  "timestamp": 1728632761,
  "chain": 42161,
  "commit": "c541543"
}