{
  "transactions": [
    {
      "hash": "0x35c087bd9fbccee0a20f82a62b5ca66c921e5d45c55c8a8f231d795a4a06cbcc",
      "transactionType": "CALL",
      "contractName": null,
      "contractAddress": "0xaf88d065e77c8cc2239327c5edb3a432268e5831",
      "function": "approve(address,uint256)",
      "arguments": [
        "0x92188c8200869b7bfB9A867C545ea723bD8AfEA1",
        "500000"
      ],
      "transaction": {
        "from": "0x24a9267ce9e0a8f4467b584fdda12baf1df772b5",
        "to": "0xaf88d065e77c8cc2239327c5edb3a432268e5831",
        "gas": "0x4073d",
        "value": "0x0",
        "input": "0x095ea7b300000000000000000000000092188c8200869b7bfb9a867c545ea723bd8afea1000000000000000000000000000000000000000000000000000000000007a120",
        "nonce": "0x7f",
        "chainId": "0xa4b1"
      },
      "additionalContracts": [],
      "isFixedGasLimit": false
    },
    {
      "hash": null,
      "transactionType": "CALL",
      "contractName": null,
      "contractAddress": "0x92188c8200869b7bfb9a867c545ea723bd8afea1",
      "function": "open((uint32,bytes32,bytes))",
      "arguments": [
        "(0, 0x724a95bc5e0fcc6c2336eaa80d4758d480ad1c97aded8adb282e26f72e6e24a0, 0x000000000000000000000000000000000000000000000000000000000000002000000000000000000000000024a9267ce9e0a8f4467b584fdda12baf1df772b500000000000000000000000024a9267ce9e0a8f4467b584fdda12baf1df772b5000000000000000000000000af88d065e77c8cc2239327c5edb3a432268e5831000000000000000000000000af88d065e77c8cc2239327c5edb3a432268e5831000000000000000000000000000000000000000000000000000000000007a120000000000000000000000000000000000000000000000000000000000007a120000000000000000000000000000000000000000000000000000000000000a4b1000000000000000000000000000000000000000000000000000000000000036b000000000000000000000000000000000000000000000000000000006709628b00000000000000000000000000000000000000000000000000000000000001400000000000000000000000000000000000000000000000000000000000000000)"
      ],
      "transaction": {
        "from": "0x24a9267ce9e0a8f4467b584fdda12baf1df772b5",
        "to": "0x92188c8200869b7bfb9a867c545ea723bd8afea1",
        "gas": "0x4e253",
        "value": "0x0",
        "input": "0xe917a96200000000000000000000000000000000000000000000000000000000000000200000000000000000000000000000000000000000000000000000000000000000724a95bc5e0fcc6c2336eaa80d4758d480ad1c97aded8adb282e26f72e6e24a000000000000000000000000000000000000000000000000000000000000000600000000000000000000000000000000000000000000000000000000000000180000000000000000000000000000000000000000000000000000000000000002000000000000000000000000024a9267ce9e0a8f4467b584fdda12baf1df772b500000000000000000000000024a9267ce9e0a8f4467b584fdda12baf1df772b5000000000000000000000000af88d065e77c8cc2239327c5edb3a432268e5831000000000000000000000000af88d065e77c8cc2239327c5edb3a432268e5831000000000000000000000000000000000000000000000000000000000007a120000000000000000000000000000000000000000000000000000000000007a120000000000000000000000000000000000000000000000000000000000000a4b1000000000000000000000000000000000000000000000000000000000000036b000000000000000000000000000000000000000000000000000000006709628b00000000000000000000000000000000000000000000000000000000000001400000000000000000000000000000000000000000000000000000000000000000",
        "nonce": "0x80",
        "chainId": "0xa4b1"
      },
      "additionalContracts": [],
      "isFixedGasLimit": false
    }
  ],
  "receipts": [
    {
      "status": "0x1",
      "cumulativeGasUsed": "0xda8fc",
      "logs": [
        {
          "address": "0xaf88d065e77c8cc2239327c5edb3a432268e5831",
          "topics": [
            "0x8c5be1e5ebec7d5bd14f71427d1e84f3dd0314c0f7b2291e5b200ac8c7c3b925",
            "0x00000000000000000000000024a9267ce9e0a8f4467b584fdda12baf1df772b5",
            "0x00000000000000000000000092188c8200869b7bfb9a867c545ea723bd8afea1"
          ],
          "data": "0x000000000000000000000000000000000000000000000000000000000007a120",
          "blockHash": "0x6fd8c0ea14212008226ff31f033d688901176d3b45f091a897988653a60ed1a0",
          "blockNumber": "0xfa442ae",
          "transactionHash": "0x35c087bd9fbccee0a20f82a62b5ca66c921e5d45c55c8a8f231d795a4a06cbcc",
          "transactionIndex": "0x2",
          "logIndex": "0x6",
          "removed": false
        }
      ],
      "logsBloom": "0x00000000000000000000000020000000000000000000000000000000000000000000000000000000000000000000000000000001000000000000000000200000000000000000040000000000000000000000000000000000000000000000000000000000000000000000000000000000000000000000000000000004000000000000000000000000000000000000000000000000004000000000000000000040020000000000000000000000000000000000000000000000000000000000000000002000000000000000000000000000000000000000000000000000000000000010000000000000000000080000200000000000000000000000000000000000",
      "type": "0x2",
      "transactionHash": "0x35c087bd9fbccee0a20f82a62b5ca66c921e5d45c55c8a8f231d795a4a06cbcc",
      "transactionIndex": "0x2",
      "blockHash": "0x6fd8c0ea14212008226ff31f033d688901176d3b45f091a897988653a60ed1a0",
      "blockNumber": "0xfa442ae",
      "gasUsed": "0x28d9c",
      "effectiveGasPrice": "0x989680",
      "from": "0x24a9267ce9e0a8f4467b584fdda12baf1df772b5",
      "to": "0xaf88d065e77c8cc2239327c5edb3a432268e5831",
      "contractAddress": null,
      "gasUsedForL1": "0x1b51b",
      "l1BlockNumber": "0x13f7834"
    }
  ],
  "libraries": [],
  "pending": [],
  "returns": {},
  "timestamp": 1728581903,
  "chain": 42161,
  "commit": "c541543"
}