{
  "transactions": [
    {
      "hash": "0x9240c2e1045bdd5c0c90e77295b5cc1c3660759d9e8c218b66ead4a4fcc989cb",
      "transactionType": "CALL",
      "contractName": null,
      "contractAddress": "0xaf88d065e77c8cc2239327c5edb3a432268e5831",
      "function": "approve(address,uint256)",
      "arguments": [
        "0x83eFe03da48cF12a258c5bb210097E8b0aB2F61F",
        "5000000"
      ],
      "transaction": {
        "from": "0x24a9267ce9e0a8f4467b584fdda12baf1df772b5",
        "to": "0xaf88d065e77c8cc2239327c5edb3a432268e5831",
        "gas": "0x1cd12",
        "value": "0x0",
        "input": "0x095ea7b300000000000000000000000083efe03da48cf12a258c5bb210097e8b0ab2f61f00000000000000000000000000000000000000000000000000000000004c4b40",
        "nonce": "0x7b",
        "chainId": "0xa4b1"
      },
      "additionalContracts": [],
      "isFixedGasLimit": false
    },
    {
      "hash": "0x6b092afe9b90ac1c0e0487261eb019414ca67da627281b4da47e6d0f213174be",
      "transactionType": "CALL",
      "contractName": null,
      "contractAddress": "0x83efe03da48cf12a258c5bb210097e8b0ab2f61f",
      "function": "submitOrder(address,address,uint256,uint256,uint32,uint256,bytes)",
      "arguments": [
        "0x24a9267cE9e0a8F4467B584FDDa12baf1Df772B5",
        "0x24a9267cE9e0a8F4467B584FDDa12baf1Df772B5",
        "5000000",
        "5000000",
        "8453",
        "1728125702",
        "0x"
      ],
      "transaction": {
        "from": "0x24a9267ce9e0a8f4467b584fdda12baf1df772b5",
        "to": "0x83efe03da48cf12a258c5bb210097e8b0ab2f61f",
        "gas": "0x3cda2",
        "value": "0x0",
        "input": "0x2e48a4a900000000000000000000000024a9267ce9e0a8f4467b584fdda12baf1df772b500000000000000000000000024a9267ce9e0a8f4467b584fdda12baf1df772b500000000000000000000000000000000000000000000000000000000004c4b4000000000000000000000000000000000000000000000000000000000004c4b4000000000000000000000000000000000000000000000000000000000000021050000000000000000000000000000000000000000000000000000000067011b0600000000000000000000000000000000000000000000000000000000000000e00000000000000000000000000000000000000000000000000000000000000000",
        "nonce": "0x7c",
        "chainId": "0xa4b1"
      },
      "additionalContracts": [],
      "isFixedGasLimit": false
    }
  ],
  "receipts": [
    {
      "status": "0x1",
      "cumulativeGasUsed": "0x49b306",
      "logs": [
        {
          "address": "0xaf88d065e77c8cc2239327c5edb3a432268e5831",
          "topics": [
            "0x8c5be1e5ebec7d5bd14f71427d1e84f3dd0314c0f7b2291e5b200ac8c7c3b925",
            "0x00000000000000000000000024a9267ce9e0a8f4467b584fdda12baf1df772b5",
            "0x00000000000000000000000083efe03da48cf12a258c5bb210097e8b0ab2f61f"
          ],
          "data": "0x00000000000000000000000000000000000000000000000000000000004c4b40",
          "blockHash": "0x6d17dd0f9023c3eda4fcf30879edd89a2af91c142f1b97b86a80b6ef49edb3a4",
          "blockNumber": "0xf836e05",
          "transactionHash": "0x9240c2e1045bdd5c0c90e77295b5cc1c3660759d9e8c218b66ead4a4fcc989cb",
          "transactionIndex": "0x5",
          "logIndex": "0x36",
          "removed": false
        }
      ],
      "logsBloom": "0x00020000000000000000000020000400000000000000000000000000000000000000000000000000000000000040000000000001000000000000000000200000000000000000000000000000000000000000000000000000000000000000000000000000000000000000000000000000000000000000000000000000000000000000000000000000000000000000000000000000000000000000000000000040020000000000000000000000000000000000000000000000000000000000000000002000000000000000000000000000000000000000000000000000000000000010000000000000000000080000200000000000000000000000000000000000",
      "type": "0x2",
      "transactionHash": "0x9240c2e1045bdd5c0c90e77295b5cc1c3660759d9e8c218b66ead4a4fcc989cb",
      "transactionIndex": "0x5",
      "blockHash": "0x6d17dd0f9023c3eda4fcf30879edd89a2af91c142f1b97b86a80b6ef49edb3a4",
      "blockNumber": "0xf836e05",
      "gasUsed": "0x14063",
      "effectiveGasPrice": "0x989680",
      "from": "0x24a9267ce9e0a8f4467b584fdda12baf1df772b5",
      "to": "0xaf88d065e77c8cc2239327c5edb3a432268e5831",
      "contractAddress": null,
      "gasUsedForL1": "0x67d6",
      "l1BlockNumber": "0x13ec82c"
    },
    {
      "status": "0x1",
      "cumulativeGasUsed": "0x35aa4",
      "logs": [
        {
          "address": "0x83efe03da48cf12a258c5bb210097e8b0ab2f61f",
          "topics": [
            "0x907157e4609ce670aea12ab97af34f506fd529c78404ac1a70653e8752a2c979",
            "0xf795620a1f1a865403161dc49cf27d4d09355a8dcc32814b774867e9be604966"
          ],
          "data": "0x000000000000000000000000000000000000000000000000000000000000002000000000000000000000000024a9267ce9e0a8f4467b584fdda12baf1df772b500000000000000000000000024a9267ce9e0a8f4467b584fdda12baf1df772b500000000000000000000000000000000000000000000000000000000004c4b4000000000000000000000000000000000000000000000000000000000004c4b400000000000000000000000000000000000000000000000000000000000000001000000000000000000000000000000000000000000000000000000000000a4b100000000000000000000000000000000000000000000000000000000000021050000000000000000000000000000000000000000000000000000000067011b0600000000000000000000000000000000000000000000000000000000000001200000000000000000000000000000000000000000000000000000000000000000",
          "blockHash": "0x3f1984966009601bdfdd884a1911865f2c7753d0793b387ab6b516f0f08b09da",
          "blockNumber": "0xf836e25",
          "transactionHash": "0x6b092afe9b90ac1c0e0487261eb019414ca67da627281b4da47e6d0f213174be",
          "transactionIndex": "0x1",
          "logIndex": "0x0",
          "removed": false
        },
        {
          "address": "0xaf88d065e77c8cc2239327c5edb3a432268e5831",
          "topics": [
            "0xddf252ad1be2c89b69c2b068fc378daa952ba7f163c4a11628f55a4df523b3ef",
            "0x00000000000000000000000024a9267ce9e0a8f4467b584fdda12baf1df772b5",
            "0x00000000000000000000000083efe03da48cf12a258c5bb210097e8b0ab2f61f"
          ],
          "data": "0x00000000000000000000000000000000000000000000000000000000004c4b40",
          "blockHash": "0x3f1984966009601bdfdd884a1911865f2c7753d0793b387ab6b516f0f08b09da",
          "blockNumber": "0xf836e25",
          "transactionHash": "0x6b092afe9b90ac1c0e0487261eb019414ca67da627281b4da47e6d0f213174be",
          "transactionIndex": "0x1",
          "logIndex": "0x1",
          "removed": false
        }
      ],
      "logsBloom": "0x00020000000000100000000020000400000000000000000000000000000000008000000000000000000000000040000000000001000000000000000010000000000000000000003000000008000000000000000000000000000000000000000000000000000000000000000000000000000000000000000000000010004000000000000000000000000000000000000000000000000000000000000000000040000000000000000000000000000000000000000000000004000000000000000000802002000000000000000000000000001000000000000000000000000000000000000000000000000000080000200000000000000000000000000000000000",
      "type": "0x2",
      "transactionHash": "0x6b092afe9b90ac1c0e0487261eb019414ca67da627281b4da47e6d0f213174be",
      "transactionIndex": "0x1",
      "blockHash": "0x3f1984966009601bdfdd884a1911865f2c7753d0793b387ab6b516f0f08b09da",
      "blockNumber": "0xf836e25",
      "gasUsed": "0x35aa4",
      "effectiveGasPrice": "0x989680",
      "from": "0x24a9267ce9e0a8f4467b584fdda12baf1df772b5",
      "to": "0x83efe03da48cf12a258c5bb210097e8b0ab2f61f",
      "contractAddress": null,
      "gasUsedForL1": "0x99bf",
      "l1BlockNumber": "0x13ec82d"
    }
  ],
  "libraries": [],
  "pending": [],
  "returns": {},
  "timestamp": 1728039314,
  "chain": 42161,
  "commit": "05cd90c"
}