{
  "transactions": [
    {
      "hash": "0xda4536aee852da00b0d8ccc5587076fc663f14bd5ff3573d3d66ee47c5fe3e3a",
      "transactionType": "CALL",
      "contractName": null,
      "contractAddress": "0x833589fcd6edb6e08f4c7c32d4f71b54bda02913",
      "function": "approve(address,uint256)",
      "arguments": [
        "0x80a428AEd33FeC3867850c75Ad8b6bB0Ec1270cA",
        "5000000"
      ],
      "transaction": {
        "from": "0x56ca414d41cd3c1188a4939b0d56417da7bb6da2",
        "to": "0x833589fcd6edb6e08f4c7c32d4f71b54bda02913",
        "gas": "0x12b1b",
        "value": "0x0",
        "input": "0x095ea7b300000000000000000000000080a428aed33fec3867850c75ad8b6bb0ec1270ca00000000000000000000000000000000000000000000000000000000004c4b40",
        "nonce": "0xf",
        "chainId": "0x2105"
      },
      "additionalContracts": [],
      "isFixedGasLimit": false
    },
    {
      "hash": "0xe8070a048d2c1b4a82c1cf3c1d8237d6aa50aef5591a2b97a6a6f646e29db558",
      "transactionType": "CALL",
      "contractName": null,
      "contractAddress": "0x80a428aed33fec3867850c75ad8b6bb0ec1270ca",
      "function": "fillOrder((bytes32,bytes32,uint256,uint256,uint256,uint32,uint32,uint256,bytes))",
      "arguments": [
        "(0x00000000000000000000000024a9267ce9e0a8f4467b584fdda12baf1df772b5, 0x00000000000000000000000024a9267ce9e0a8f4467b584fdda12baf1df772b5, 5000000, 5000000, 1, 42161, 8453, 1728125702, 0x)"
      ],
      "transaction": {
        "from": "0x56ca414d41cd3c1188a4939b0d56417da7bb6da2",
        "to": "0x80a428aed33fec3867850c75ad8b6bb0ec1270ca",
        "gas": "0x37d97",
        "value": "0x0",
        "input": "0xbdaa4e2f000000000000000000000000000000000000000000000000000000000000002000000000000000000000000024a9267ce9e0a8f4467b584fdda12baf1df772b500000000000000000000000024a9267ce9e0a8f4467b584fdda12baf1df772b500000000000000000000000000000000000000000000000000000000004c4b4000000000000000000000000000000000000000000000000000000000004c4b400000000000000000000000000000000000000000000000000000000000000001000000000000000000000000000000000000000000000000000000000000a4b100000000000000000000000000000000000000000000000000000000000021050000000000000000000000000000000000000000000000000000000067011b0600000000000000000000000000000000000000000000000000000000000001200000000000000000000000000000000000000000000000000000000000000000",
        "nonce": "0x10",
        "chainId": "0x2105"
      },
      "additionalContracts": [],
      "isFixedGasLimit": false
    }
  ],
  "receipts": [
    {
      "status": "0x1",
      "cumulativeGasUsed": "0xf0ab89",
      "logs": [
        {
          "address": "0x833589fcd6edb6e08f4c7c32d4f71b54bda02913",
          "topics": [
            "0x8c5be1e5ebec7d5bd14f71427d1e84f3dd0314c0f7b2291e5b200ac8c7c3b925",
            "0x00000000000000000000000056ca414d41cd3c1188a4939b0d56417da7bb6da2",
            "0x00000000000000000000000080a428aed33fec3867850c75ad8b6bb0ec1270ca"
          ],
          "data": "0x00000000000000000000000000000000000000000000000000000000004c4b40",
          "blockHash": "0x1fe3fcda97c1790819e7a0b3cd5a23a10ef33c7bd13722a0ee9eefee4cadecd8",
          "blockNumber": "0x13ab70c",
          "transactionHash": "0xda4536aee852da00b0d8ccc5587076fc663f14bd5ff3573d3d66ee47c5fe3e3a",
          "transactionIndex": "0x4c",
          "logIndex": "0x114",
          "removed": false
        }
      ],
      "logsBloom": "0x00000000000000000000000000000000000000000000000000000000000000000000000000000000000000000000100000000000000000000200000000200000000000000000000000000000000000000000000000080000000000000000000000800000000000000000000000000000000000000000000000000000000000000000000080000000000000000000000000000000800000000000000000000000020000000000000000000000000000000000000000000000000000000000000000000000000000000010000000000000000000000020000000000000000000000010000001000000000000000000000000000000000000000000000000000000",
      "type": "0x2",
      "transactionHash": "0xda4536aee852da00b0d8ccc5587076fc663f14bd5ff3573d3d66ee47c5fe3e3a",
      "transactionIndex": "0x4c",
      "blockHash": "0x1fe3fcda97c1790819e7a0b3cd5a23a10ef33c7bd13722a0ee9eefee4cadecd8",
      "blockNumber": "0x13ab70c",
      "gasUsed": "0xd88d",
      "effectiveGasPrice": "0x330e32",
      "from": "0x56ca414d41cd3c1188a4939b0d56417da7bb6da2",
      "to": "0x833589fcd6edb6e08f4c7c32d4f71b54bda02913",
      "contractAddress": null,
      "l1BaseFeeScalar": "0x8dd",
      "l1BlobBaseFee": "0x1",
      "l1BlobBaseFeeScalar": "0x101c12",
      "l1Fee": "0x37dec8516",
      "l1GasPrice": "0xf63b9ef6",
      "l1GasUsed": "0x640"
    },
    {
      "status": "0x1",
      "cumulativeGasUsed": "0xf30e8a",
      "logs": [
        {
          "address": "0x833589fcd6edb6e08f4c7c32d4f71b54bda02913",
          "topics": [
            "0xddf252ad1be2c89b69c2b068fc378daa952ba7f163c4a11628f55a4df523b3ef",
            "0x00000000000000000000000056ca414d41cd3c1188a4939b0d56417da7bb6da2",
            "0x00000000000000000000000024a9267ce9e0a8f4467b584fdda12baf1df772b5"
          ],
          "data": "0x00000000000000000000000000000000000000000000000000000000004c4b40",
          "blockHash": "0x1fe3fcda97c1790819e7a0b3cd5a23a10ef33c7bd13722a0ee9eefee4cadecd8",
          "blockNumber": "0x13ab70c",
          "transactionHash": "0xe8070a048d2c1b4a82c1cf3c1d8237d6aa50aef5591a2b97a6a6f646e29db558",
          "transactionIndex": "0x4d",
          "logIndex": "0x115",
          "removed": false
        }
      ],
      "logsBloom": "0x00000000000000000000000020000000000000000000000000000000000000000000000000000000000000000000100000000000000000000200000000000000000000000000000000000008000000000000000000080000000000000000000000800000000000000000000000000000000000000000000000000010000000000000000000000000000000000000000000000000000000000000000000000040000000000000000000000000000000000000000000000000000000000000000000000002000000000010000000000000000000000020000000000000000000000000000000000000000000080000000000000000000000000000000000000000",
      "type": "0x2",
      "transactionHash": "0xe8070a048d2c1b4a82c1cf3c1d8237d6aa50aef5591a2b97a6a6f646e29db558",
      "transactionIndex": "0x4d",
      "blockHash": "0x1fe3fcda97c1790819e7a0b3cd5a23a10ef33c7bd13722a0ee9eefee4cadecd8",
      "blockNumber": "0x13ab70c",
      "gasUsed": "0x26301",
      "effectiveGasPrice": "0x330e32",
      "from": "0x56ca414d41cd3c1188a4939b0d56417da7bb6da2",
      "to": "0x80a428aed33fec3867850c75ad8b6bb0ec1270ca",
      "contractAddress": null,
      "l1BaseFeeScalar": "0x8dd",
      "l1BlobBaseFee": "0x1",
      "l1BlobBaseFeeScalar": "0x101c12",
      "l1Fee": "0x4c38a0d36",
      "l1GasPrice": "0xf63b9ef6",
      "l1GasUsed": "0x886"
    }
  ],
  "libraries": [],
  "pending": [],
  "returns": {},
  "timestamp": 1728039680,
  "chain": 8453,
  "commit": "05cd90c"
}