{
  "transactions": [
    {
      "hash": null,
      "transactionType": "CALL",
      "contractName": null,
      "contractAddress": "0xaf88d065e77c8cc2239327c5edb3a432268e5831",
      "function": "approve(address,uint256)",
      "arguments": [
        "0x867620dA768C4095b81a8470Be62Bcb52A3E6154",
        "5000000"
      ],
      "transaction": {
        "from": "0x24a9267ce9e0a8f4467b584fdda12baf1df772b5",
        "to": "0xaf88d065e77c8cc2239327c5edb3a432268e5831",
        "gas": "0x56d3b",
        "value": "0x0",
        "input": "0x095ea7b3000000000000000000000000867620da768c4095b81a8470be62bcb52a3e615400000000000000000000000000000000000000000000000000000000004c4b40",
        "nonce": "0x7d",
        "chainId": "0xa4b1"
      },
      "additionalContracts": [],
      "isFixedGasLimit": false
    },
    {
      "hash": null,
      "transactionType": "CALL",
      "contractName": null,
      "contractAddress": "0x867620da768c4095b81a8470be62bcb52a3e6154",
      "function": "open((uint32,bytes32,bytes))",
      "arguments": [
        "(0, 0x724a95bc5e0fcc6c2336eaa80d4758d480ad1c97aded8adb282e26f72e6e24a0, 0x000000000000000000000000000000000000000000000000000000000000002000000000000000000000000024a9267ce9e0a8f4467b584fdda12baf1df772b500000000000000000000000024a9267ce9e0a8f4467b584fdda12baf1df772b5000000000000000000000000af88d065e77c8cc2239327c5edb3a432268e5831000000000000000000000000af88d065e77c8cc2239327c5edb3a432268e583100000000000000000000000000000000000000000000000000000000004c4b4000000000000000000000000000000000000000000000000000000000004c4b40000000000000000000000000000000000000000000000000000000000000a4b1000000000000000000000000000000000000000000000000000000000000036b0000000000000000000000000000000000000000000000000000000067095c7900000000000000000000000000000000000000000000000000000000000001400000000000000000000000000000000000000000000000000000000000000000)"
      ],
      "transaction": {
        "from": "0x24a9267ce9e0a8f4467b584fdda12baf1df772b5",
        "to": "0x867620da768c4095b81a8470be62bcb52a3e6154",
        "gas": "0x509c0",
        "value": "0x0",
        "input": "0xe917a96200000000000000000000000000000000000000000000000000000000000000200000000000000000000000000000000000000000000000000000000000000000724a95bc5e0fcc6c2336eaa80d4758d480ad1c97aded8adb282e26f72e6e24a000000000000000000000000000000000000000000000000000000000000000600000000000000000000000000000000000000000000000000000000000000180000000000000000000000000000000000000000000000000000000000000002000000000000000000000000024a9267ce9e0a8f4467b584fdda12baf1df772b500000000000000000000000024a9267ce9e0a8f4467b584fdda12baf1df772b5000000000000000000000000af88d065e77c8cc2239327c5edb3a432268e5831000000000000000000000000af88d065e77c8cc2239327c5edb3a432268e583100000000000000000000000000000000000000000000000000000000004c4b4000000000000000000000000000000000000000000000000000000000004c4b40000000000000000000000000000000000000000000000000000000000000a4b1000000000000000000000000000000000000000000000000000000000000036b0000000000000000000000000000000000000000000000000000000067095c7900000000000000000000000000000000000000000000000000000000000001400000000000000000000000000000000000000000000000000000000000000000",
        "nonce": "0x7e",
        "chainId": "0xa4b1"
      },
      "additionalContracts": [],
      "isFixedGasLimit": false
    }
  ],
  "receipts": [],
  "libraries": [],
  "pending": [],
  "returns": {},
  "timestamp": 1728580349,
  "chain": 42161,
  "commit": "c541543"
}