{
  "transactions": [
    {
      "hash": null,
      "transactionType": "CALL",
      "contractName": null,
      "contractAddress": "0x833589fcd6edb6e08f4c7c32d4f71b54bda02913",
      "function": "approve(address,uint256)",
      "arguments": [
        "0x80a428AEd33FeC3867850c75Ad8b6bB0Ec1270cA",
        "5000000"
      ],
      "transaction": {
        "from": "0x56ca414d41cd3c1188a4939b0d56417da7bb6da2",
        "to": "0x833589fcd6edb6e08f4c7c32d4f71b54bda02913",
        "gas": "0x12b1b",
        "value": "0x0",
        "input": "0x095ea7b300000000000000000000000080a428aed33fec3867850c75ad8b6bb0ec1270ca00000000000000000000000000000000000000000000000000000000004c4b40",
        "nonce": "0xf",
        "chainId": "0x2105"
      },
      "additionalContracts": [],
      "isFixedGasLimit": false
    },
    {
      "hash": null,
      "transactionType": "CALL",
      "contractName": null,
      "contractAddress": "0x80a428aed33fec3867850c75ad8b6bb0ec1270ca",
      "function": "fillOrder((bytes32,bytes32,uint256,uint256,uint256,uint32,uint32,uint256,bytes))",
      "arguments": [
        "(0x00000000000000000000000024a9267ce9e0a8f4467b584fdda12baf1df772b5, 0x00000000000000000000000024a9267ce9e0a8f4467b584fdda12baf1df772b5, 5000000, 5000000, 1, 42161, 8453, 1728125702, 0x)"
      ],
      "transaction": {
        "from": "0x56ca414d41cd3c1188a4939b0d56417da7bb6da2",
        "to": "0x80a428aed33fec3867850c75ad8b6bb0ec1270ca",
        "gas": "0x37d97",
        "value": "0x0",
        "input": "0xbdaa4e2f000000000000000000000000000000000000000000000000000000000000002000000000000000000000000024a9267ce9e0a8f4467b584fdda12baf1df772b500000000000000000000000024a9267ce9e0a8f4467b584fdda12baf1df772b500000000000000000000000000000000000000000000000000000000004c4b4000000000000000000000000000000000000000000000000000000000004c4b400000000000000000000000000000000000000000000000000000000000000001000000000000000000000000000000000000000000000000000000000000a4b100000000000000000000000000000000000000000000000000000000000021050000000000000000000000000000000000000000000000000000000067011b0600000000000000000000000000000000000000000000000000000000000001200000000000000000000000000000000000000000000000000000000000000000",
        "nonce": "0x10",
        "chainId": "0x2105"
      },
      "additionalContracts": [],
      "isFixedGasLimit": false
    }
  ],
  "receipts": [],
  "libraries": [],
  "pending": [],
  "returns": {},
  "timestamp": 1728039662,
  "chain": 8453,
  "commit": "05cd90c"
}